{
  "_format": "hh-sol-artifact-1",
  "contractName": "BlabPresale",
  "sourceName": "contracts/Blab_Presale.sol",
  "abi": [
    {
      "inputs": [
        {
          "internalType": "address",
          "name": "_tokenAddress",
          "type": "address"
        }
      ],
      "stateMutability": "nonpayable",
      "type": "constructor"
    },
    {
      "inputs": [
        {
          "internalType": "address",
          "name": "owner",
          "type": "address"
        }
      ],
      "name": "OwnableInvalidOwner",
      "type": "error"
    },
    {
      "inputs": [
        {
          "internalType": "address",
          "name": "account",
          "type": "address"
        }
      ],
      "name": "OwnableUnauthorizedAccount",
      "type": "error"
    },
    {
      "anonymous": false,
      "inputs": [
        {
          "indexed": true,
          "internalType": "address",
          "name": "previousOwner",
          "type": "address"
        },
        {
          "indexed": true,
          "internalType": "address",
          "name": "newOwner",
          "type": "address"
        }
      ],
      "name": "OwnershipTransferred",
      "type": "event"
    },
    {
      "anonymous": false,
      "inputs": [
        {
          "indexed": false,
          "internalType": "uint256",
          "name": "stage",
          "type": "uint256"
        }
      ],
      "name": "PresaleStageStarted",
      "type": "event"
    },
    {
      "anonymous": false,
      "inputs": [
        {
          "indexed": true,
          "internalType": "address",
          "name": "buyer",
          "type": "address"
        },
        {
          "indexed": false,
          "internalType": "uint256",
          "name": "amount",
          "type": "uint256"
        },
        {
          "indexed": false,
          "internalType": "uint256",
          "name": "stage",
          "type": "uint256"
        }
      ],
      "name": "TokensPurchased",
      "type": "event"
    },
    {
      "inputs": [],
      "name": "ADVISORY_SUPPLY",
      "outputs": [
        {
          "internalType": "uint256",
          "name": "",
          "type": "uint256"
        }
      ],
      "stateMutability": "view",
      "type": "function"
    },
    {
      "inputs": [],
      "name": "AIRDROP_REWARDS_SUPPLY",
      "outputs": [
        {
          "internalType": "uint256",
          "name": "",
          "type": "uint256"
        }
      ],
      "stateMutability": "view",
      "type": "function"
    },
    {
      "inputs": [],
      "name": "DEVELOPMENT_MARKETING_SUPPLY",
      "outputs": [
        {
          "internalType": "uint256",
          "name": "",
          "type": "uint256"
        }
      ],
      "stateMutability": "view",
      "type": "function"
    },
    {
      "inputs": [],
      "name": "ECOSYSTEM_SUPPLY",
      "outputs": [
        {
          "internalType": "uint256",
          "name": "",
          "type": "uint256"
        }
      ],
      "stateMutability": "view",
      "type": "function"
    },
    {
      "inputs": [],
      "name": "EXCHANGE_RESERVES_SUPPLY",
      "outputs": [
        {
          "internalType": "uint256",
          "name": "",
          "type": "uint256"
        }
      ],
      "stateMutability": "view",
      "type": "function"
    },
    {
      "inputs": [],
      "name": "LIQUIDITY_SUPPLY",
      "outputs": [
        {
          "internalType": "uint256",
          "name": "",
          "type": "uint256"
        }
      ],
      "stateMutability": "view",
      "type": "function"
    },
    {
      "inputs": [],
      "name": "PRESALE_STAGE_1_HARDCAP",
      "outputs": [
        {
          "internalType": "uint256",
          "name": "",
          "type": "uint256"
        }
      ],
      "stateMutability": "view",
      "type": "function"
    },
    {
      "inputs": [],
      "name": "PRESALE_STAGE_1_PRICE",
      "outputs": [
        {
          "internalType": "uint256",
          "name": "",
          "type": "uint256"
        }
      ],
      "stateMutability": "view",
      "type": "function"
    },
    {
      "inputs": [],
      "name": "PRESALE_STAGE_1_SUPPLY",
      "outputs": [
        {
          "internalType": "uint256",
          "name": "",
          "type": "uint256"
        }
      ],
      "stateMutability": "view",
      "type": "function"
    },
    {
      "inputs": [],
      "name": "PRESALE_STAGE_2_HARDCAP",
      "outputs": [
        {
          "internalType": "uint256",
          "name": "",
          "type": "uint256"
        }
      ],
      "stateMutability": "view",
      "type": "function"
    },
    {
      "inputs": [],
      "name": "PRESALE_STAGE_2_PRICE",
      "outputs": [
        {
          "internalType": "uint256",
          "name": "",
          "type": "uint256"
        }
      ],
      "stateMutability": "view",
      "type": "function"
    },
    {
      "inputs": [],
      "name": "PRESALE_STAGE_2_SUPPLY",
      "outputs": [
        {
          "internalType": "uint256",
          "name": "",
          "type": "uint256"
        }
      ],
      "stateMutability": "view",
      "type": "function"
    },
    {
      "inputs": [],
      "name": "PRESALE_STAGE_3_HARDCAP",
      "outputs": [
        {
          "internalType": "uint256",
          "name": "",
          "type": "uint256"
        }
      ],
      "stateMutability": "view",
      "type": "function"
    },
    {
      "inputs": [],
      "name": "PRESALE_STAGE_3_PRICE",
      "outputs": [
        {
          "internalType": "uint256",
          "name": "",
          "type": "uint256"
        }
      ],
      "stateMutability": "view",
      "type": "function"
    },
    {
      "inputs": [],
      "name": "PRESALE_STAGE_3_SUPPLY",
      "outputs": [
        {
          "internalType": "uint256",
          "name": "",
          "type": "uint256"
        }
      ],
      "stateMutability": "view",
      "type": "function"
    },
    {
      "inputs": [],
      "name": "PRESALE_STAGE_4_HARDCAP",
      "outputs": [
        {
          "internalType": "uint256",
          "name": "",
          "type": "uint256"
        }
      ],
      "stateMutability": "view",
      "type": "function"
    },
    {
      "inputs": [],
      "name": "PRESALE_STAGE_4_PRICE",
      "outputs": [
        {
          "internalType": "uint256",
          "name": "",
          "type": "uint256"
        }
      ],
      "stateMutability": "view",
      "type": "function"
    },
    {
      "inputs": [],
      "name": "PRESALE_STAGE_4_SUPPLY",
      "outputs": [
        {
          "internalType": "uint256",
          "name": "",
          "type": "uint256"
        }
      ],
      "stateMutability": "view",
      "type": "function"
    },
    {
      "inputs": [],
      "name": "PRESALE_STAGE_5_HARDCAP",
      "outputs": [
        {
          "internalType": "uint256",
          "name": "",
          "type": "uint256"
        }
      ],
      "stateMutability": "view",
      "type": "function"
    },
    {
      "inputs": [],
      "name": "PRESALE_STAGE_5_PRICE",
      "outputs": [
        {
          "internalType": "uint256",
          "name": "",
          "type": "uint256"
        }
      ],
      "stateMutability": "view",
      "type": "function"
    },
    {
      "inputs": [],
      "name": "PRESALE_STAGE_5_SUPPLY",
      "outputs": [
        {
          "internalType": "uint256",
          "name": "",
          "type": "uint256"
        }
      ],
      "stateMutability": "view",
      "type": "function"
    },
    {
      "inputs": [],
      "name": "PRESALE_STAGE_6_HARDCAP",
      "outputs": [
        {
          "internalType": "uint256",
          "name": "",
          "type": "uint256"
        }
      ],
      "stateMutability": "view",
      "type": "function"
    },
    {
      "inputs": [],
      "name": "PRESALE_STAGE_6_PRICE",
      "outputs": [
        {
          "internalType": "uint256",
          "name": "",
          "type": "uint256"
        }
      ],
      "stateMutability": "view",
      "type": "function"
    },
    {
      "inputs": [],
      "name": "PRESALE_STAGE_6_SUPPLY",
      "outputs": [
        {
          "internalType": "uint256",
          "name": "",
          "type": "uint256"
        }
      ],
      "stateMutability": "view",
      "type": "function"
    },
    {
      "inputs": [],
      "name": "PRIVATE_SALE_SUPPLY",
      "outputs": [
        {
          "internalType": "uint256",
          "name": "",
          "type": "uint256"
        }
      ],
      "stateMutability": "view",
      "type": "function"
    },
    {
      "inputs": [],
      "name": "PUBLIC_PRESALE_SUPPLY",
      "outputs": [
        {
          "internalType": "uint256",
          "name": "",
          "type": "uint256"
        }
      ],
      "stateMutability": "view",
      "type": "function"
    },
    {
      "inputs": [],
      "name": "STAKING_POOL_SUPPLY",
      "outputs": [
        {
          "internalType": "uint256",
          "name": "",
          "type": "uint256"
        }
      ],
      "stateMutability": "view",
      "type": "function"
    },
    {
      "inputs": [],
      "name": "TEAM_SUPPLY",
      "outputs": [
        {
          "internalType": "uint256",
          "name": "",
          "type": "uint256"
        }
      ],
      "stateMutability": "view",
      "type": "function"
    },
    {
      "inputs": [],
      "name": "TOTAL_SUPPLY",
      "outputs": [
        {
          "internalType": "uint256",
          "name": "",
          "type": "uint256"
        }
      ],
      "stateMutability": "view",
      "type": "function"
    },
    {
      "inputs": [
        {
          "internalType": "uint256",
          "name": "_amount",
          "type": "uint256"
        }
      ],
      "name": "buyTokens",
      "outputs": [],
      "stateMutability": "payable",
      "type": "function"
    },
    {
      "inputs": [],
      "name": "owner",
      "outputs": [
        {
          "internalType": "address",
          "name": "",
          "type": "address"
        }
      ],
      "stateMutability": "view",
      "type": "function"
    },
    {
      "inputs": [],
      "name": "presaleStage",
      "outputs": [
        {
          "internalType": "uint256",
          "name": "",
          "type": "uint256"
        }
      ],
      "stateMutability": "view",
      "type": "function"
    },
    {
      "inputs": [],
      "name": "renounceOwnership",
      "outputs": [],
      "stateMutability": "nonpayable",
      "type": "function"
    },
    {
      "inputs": [
        {
          "internalType": "uint256",
          "name": "",
          "type": "uint256"
        }
      ],
      "name": "stageTotalRaised",
      "outputs": [
        {
          "internalType": "uint256",
          "name": "",
          "type": "uint256"
        }
      ],
      "stateMutability": "view",
      "type": "function"
    },
    {
      "inputs": [
        {
          "internalType": "uint256",
          "name": "_stage",
          "type": "uint256"
        }
      ],
      "name": "startPresaleStage",
      "outputs": [],
      "stateMutability": "nonpayable",
      "type": "function"
    },
    {
      "inputs": [
        {
          "internalType": "address",
          "name": "newOwner",
          "type": "address"
        }
      ],
      "name": "transferOwnership",
      "outputs": [],
      "stateMutability": "nonpayable",
      "type": "function"
    },
    {
      "inputs": [
        {
          "internalType": "uint256",
          "name": "_amount",
          "type": "uint256"
        }
      ],
      "name": "withdrawEther",
      "outputs": [],
      "stateMutability": "nonpayable",
      "type": "function"
    }
  ],
  "bytecode": "0x608060405260006002553480156200001657600080fd5b5060405162001a3038038062001a3083398181016040528101906200003c91906200023a565b33600073ffffffffffffffffffffffffffffffffffffffff168173ffffffffffffffffffffffffffffffffffffffff1603620000b25760006040517f1e4fbdf7000000000000000000000000000000000000000000000000000000008152600401620000a991906200027d565b60405180910390fd5b620000c3816200010c60201b60201c565b5080600160006101000a81548173ffffffffffffffffffffffffffffffffffffffff021916908373ffffffffffffffffffffffffffffffffffffffff160217905550506200029a565b60008060009054906101000a900473ffffffffffffffffffffffffffffffffffffffff169050816000806101000a81548173ffffffffffffffffffffffffffffffffffffffff021916908373ffffffffffffffffffffffffffffffffffffffff1602179055508173ffffffffffffffffffffffffffffffffffffffff168173ffffffffffffffffffffffffffffffffffffffff167f8be0079c531659141344cd1fd0a4f28419497f9722a3daafe3b4186f6b6457e060405160405180910390a35050565b600080fd5b600073ffffffffffffffffffffffffffffffffffffffff82169050919050565b60006200020282620001d5565b9050919050565b6200021481620001f5565b81146200022057600080fd5b50565b600081519050620002348162000209565b92915050565b600060208284031215620002535762000252620001d0565b5b6000620002638482850162000223565b91505092915050565b6200027781620001f5565b82525050565b60006020820190506200029460008301846200026c565b92915050565b61178680620002aa6000396000f3fe60806040526004361061021a5760003560e01c8063902d55a511610123578063cc104eba116100ab578063eb1c31ba1161006f578063eb1c31ba1461076a578063f2fde38b14610795578063f7c6fd0b146107be578063fb5baa5f146107e9578063ff98241d146108145761021a565b8063cc104eba14610693578063d17bd0df146106be578063dcd09d7b146106e9578063e557bf1514610714578063e5b79fc41461073f5761021a565b8063b76000b9116100f2578063b76000b9146105be578063b840ed78146105e9578063b9c3a81814610612578063bc7a104e1461063d578063bcfb4d51146106685761021a565b8063902d55a514610512578063910f55911461053d578063ac8f5f6714610568578063b1439c30146105935761021a565b80635a77571d116101a657806368b09ded1161017557806368b09ded1461044f5780636d602dd31461047a578063715018a6146104a557806387d10ced146104bc5780638da5cb5b146104e75761021a565b80635a77571d146103915780635d3c06f2146103ce5780635e15dd6c146103f957806360db7b3b146104245761021a565b806327d6b65c116101ed57806327d6b65c146102cb5780633272f505146102f65780633610724e146103215780633bed33ce1461033d5780634581f2b7146103665761021a565b806301ea28281461021f5780631903745a1461024a5780631caa1981146102755780632314048f146102a0575b600080fd5b34801561022b57600080fd5b5061023461083f565b60405161024191906111b7565b60405180910390f35b34801561025657600080fd5b5061025f61084e565b60405161026c91906111b7565b60405180910390f35b34801561028157600080fd5b5061028a61085a565b60405161029791906111b7565b60405180910390f35b3480156102ac57600080fd5b506102b5610866565b6040516102c291906111b7565b60405180910390f35b3480156102d757600080fd5b506102e0610875565b6040516102ed91906111b7565b60405180910390f35b34801561030257600080fd5b5061030b610880565b60405161031891906111b7565b60405180910390f35b61033b60048036038101906103369190611203565b61088f565b005b34801561034957600080fd5b50610364600480360381019061035f9190611203565b610cf0565b005b34801561037257600080fd5b5061037b610d8c565b60405161038891906111b7565b60405180910390f35b34801561039d57600080fd5b506103b860048036038101906103b39190611203565b610d9b565b6040516103c591906111b7565b60405180910390f35b3480156103da57600080fd5b506103e3610db3565b6040516103f091906111b7565b60405180910390f35b34801561040557600080fd5b5061040e610dc2565b60405161041b91906111b7565b60405180910390f35b34801561043057600080fd5b50610439610dd1565b60405161044691906111b7565b60405180910390f35b34801561045b57600080fd5b50610464610de0565b60405161047191906111b7565b60405180910390f35b34801561048657600080fd5b5061048f610de6565b60405161049c91906111b7565b60405180910390f35b3480156104b157600080fd5b506104ba610df5565b005b3480156104c857600080fd5b506104d1610e09565b6040516104de91906111b7565b60405180910390f35b3480156104f357600080fd5b506104fc610e17565b6040516105099190611271565b60405180910390f35b34801561051e57600080fd5b50610527610e40565b60405161053491906111b7565b60405180910390f35b34801561054957600080fd5b50610552610e50565b60405161055f91906111b7565b60405180910390f35b34801561057457600080fd5b5061057d610e5f565b60405161058a91906111b7565b60405180910390f35b34801561059f57600080fd5b506105a8610e6e565b6040516105b591906111b7565b60405180910390f35b3480156105ca57600080fd5b506105d3610e7d565b6040516105e091906111b7565b60405180910390f35b3480156105f557600080fd5b50610610600480360381019061060b9190611203565b610e8c565b005b34801561061e57600080fd5b50610627610f1e565b60405161063491906111b7565b60405180910390f35b34801561064957600080fd5b50610652610f2d565b60405161065f91906111b7565b60405180910390f35b34801561067457600080fd5b5061067d610f3c565b60405161068a91906111b7565b60405180910390f35b34801561069f57600080fd5b506106a8610f4b565b6040516106b591906111b7565b60405180910390f35b3480156106ca57600080fd5b506106d3610f56565b6040516106e091906111b7565b60405180910390f35b3480156106f557600080fd5b506106fe610f65565b60405161070b91906111b7565b60405180910390f35b34801561072057600080fd5b50610729610f74565b60405161073691906111b7565b60405180910390f35b34801561074b57600080fd5b50610754610f83565b60405161076191906111b7565b60405180910390f35b34801561077657600080fd5b5061077f610f92565b60405161078c91906111b7565b60405180910390f35b3480156107a157600080fd5b506107bc60048036038101906107b791906112b8565b610f9d565b005b3480156107ca57600080fd5b506107d3611023565b6040516107e091906111b7565b60405180910390f35b3480156107f557600080fd5b506107fe61102e565b60405161080b91906111b7565b60405180910390f35b34801561082057600080fd5b5061082961103d565b60405161083691906111b7565b60405180910390f35b6a211654585005212800000081565b67016345785d8a000081565b67012dfb0cb5e8800081565b6a02cffa5e8bebf4bd00000081565b66e6ed27d666800081565b6a3e09de2596099e2b00000081565b60006002541180156108a45750600660025411155b6108e3576040517f08c379a00000000000000000000000000000000000000000000000000000000081526004016108da90611342565b60405180910390fd5b600080600060016002540361091c5766470de4df82000092506a108b2a2c2802909400000091506954b40b1f852bda0000009050610a26565b600280540361094f57666a94d74f43000092506a108b2a2c280290940000009150697f0e10af47c1c70000009050610a25565b6003600254036109845766b1a2bc2ec5000092506a211654585005212800000091506a01a784379d99db420000009050610a24565b6004600254036109b95766e6ed27d666800092506a211654585005212800000091506a022692484ce19d090000009050610a23565b6005600254036109ef5767012dfb0cb5e8800092506a211654585005212800000091506a02cffa5e8bebf4bd0000009050610a22565b600660025403610a215767016345785d8a000092506a211654585005212800000091506a034f086f3b33b68400000090505b5b5b5b5b5b6003600060025481526020019081526020016000205481610a479190611391565b8385610a5391906113c5565b1115610a94576040517f08c379a0000000000000000000000000000000000000000000000000000000008152600401610a8b90611453565b60405180910390fd5b348385610aa191906113c5565b1115610ae2576040517f08c379a0000000000000000000000000000000000000000000000000000000008152600401610ad9906114bf565b60405180910390fd5b600160009054906101000a900473ffffffffffffffffffffffffffffffffffffffff1673ffffffffffffffffffffffffffffffffffffffff166318160ddd6040518163ffffffff1660e01b8152600401602060405180830381865afa158015610b4f573d6000803e3d6000fd5b505050506040513d601f19601f82011682018060405250810190610b7391906114f4565b82610b7e9190611391565b841115610bc0576040517f08c379a0000000000000000000000000000000000000000000000000000000008152600401610bb79061156d565b60405180910390fd5b8284610bcc91906113c5565b6003600060025481526020019081526020016000206000828254610bf0919061158d565b92505081905550600160009054906101000a900473ffffffffffffffffffffffffffffffffffffffff1673ffffffffffffffffffffffffffffffffffffffff1663a9059cbb33866040518363ffffffff1660e01b8152600401610c549291906115c1565b6020604051808303816000875af1158015610c73573d6000803e3d6000fd5b505050506040513d601f19601f82011682018060405250810190610c979190611622565b503373ffffffffffffffffffffffffffffffffffffffff167f8fafebcaf9d154343dad25669bfa277f4fbacd7ac6b0c4fed522580e040a0f3385600254604051610ce292919061164f565b60405180910390a250505050565b610cf861104b565b47811115610d3b576040517f08c379a0000000000000000000000000000000000000000000000000000000008152600401610d32906116c4565b60405180910390fd5b610d43610e17565b73ffffffffffffffffffffffffffffffffffffffff166108fc829081150290604051600060405180830381858888f19350505050158015610d88573d6000803e3d6000fd5b5050565b6a6765c793fa10079d00000081565b60036020528060005260406000206000915090505481565b6a211654585005212800000081565b6a4a723dc6b40b8a9a00000081565b6aa56fa5b99019a5c800000081565b60025481565b6a73ce27351811f40c00000081565b610dfd61104b565b610e0760006110d2565b565b697f0e10af47c1c700000081565b60008060009054906101000a900473ffffffffffffffffffffffffffffffffffffffff16905090565b6b033b2e3c9fd0803ce800000081565b6a211654585005212800000081565b6a25391ee35a05c54d00000081565b6a18d0bf423c03d8de00000081565b6a022692484ce19d0900000081565b610e9461104b565b600081118015610ea5575060068111155b610ee4576040517f08c379a0000000000000000000000000000000000000000000000000000000008152600401610edb90611730565b60405180910390fd5b7f4c7e09d1d2b60779cf82775f12f66696fd901bd76612d7d486a833412c28989481604051610f1391906111b7565b60405180910390a150565b6a422ca8b0a00a425000000081565b6a108b2a2c2802909400000081565b6a887c1bec4a1528c500000081565b66470de4df82000081565b6a295be96e6406697200000081565b6a034f086f3b33b68400000081565b6a01a784379d99db4200000081565b6a108b2a2c2802909400000081565b66b1a2bc2ec5000081565b610fa561104b565b600073ffffffffffffffffffffffffffffffffffffffff168173ffffffffffffffffffffffffffffffffffffffff16036110175760006040517f1e4fbdf700000000000000000000000000000000000000000000000000000000815260040161100e9190611271565b60405180910390fd5b611020816110d2565b50565b666a94d74f43000081565b6a211654585005212800000081565b6954b40b1f852bda00000081565b611053611196565b73ffffffffffffffffffffffffffffffffffffffff16611071610e17565b73ffffffffffffffffffffffffffffffffffffffff16146110d057611094611196565b6040517f118cdaa70000000000000000000000000000000000000000000000000000000081526004016110c79190611271565b60405180910390fd5b565b60008060009054906101000a900473ffffffffffffffffffffffffffffffffffffffff169050816000806101000a81548173ffffffffffffffffffffffffffffffffffffffff021916908373ffffffffffffffffffffffffffffffffffffffff1602179055508173ffffffffffffffffffffffffffffffffffffffff168173ffffffffffffffffffffffffffffffffffffffff167f8be0079c531659141344cd1fd0a4f28419497f9722a3daafe3b4186f6b6457e060405160405180910390a35050565b600033905090565b6000819050919050565b6111b18161119e565b82525050565b60006020820190506111cc60008301846111a8565b92915050565b600080fd5b6111e08161119e565b81146111eb57600080fd5b50565b6000813590506111fd816111d7565b92915050565b600060208284031215611219576112186111d2565b5b6000611227848285016111ee565b91505092915050565b600073ffffffffffffffffffffffffffffffffffffffff82169050919050565b600061125b82611230565b9050919050565b61126b81611250565b82525050565b60006020820190506112866000830184611262565b92915050565b61129581611250565b81146112a057600080fd5b50565b6000813590506112b28161128c565b92915050565b6000602082840312156112ce576112cd6111d2565b5b60006112dc848285016112a3565b91505092915050565b600082825260208201905092915050565b7f50726573616c65206e6f74206163746976650000000000000000000000000000600082015250565b600061132c6012836112e5565b9150611337826112f6565b602082019050919050565b6000602082019050818103600083015261135b8161131f565b9050919050565b7f4e487b7100000000000000000000000000000000000000000000000000000000600052601160045260246000fd5b600061139c8261119e565b91506113a78361119e565b92508282039050818111156113bf576113be611362565b5b92915050565b60006113d08261119e565b91506113db8361119e565b92508282026113e98161119e565b91508282048414831517611400576113ff611362565b5b5092915050565b7f4861726463617020726561636865640000000000000000000000000000000000600082015250565b600061143d600f836112e5565b915061144882611407565b602082019050919050565b6000602082019050818103600083015261146c81611430565b9050919050565b7f496e73756666696369656e74204554482073656e740000000000000000000000600082015250565b60006114a96015836112e5565b91506114b482611473565b602082019050919050565b600060208201905081810360008301526114d88161149c565b9050919050565b6000815190506114ee816111d7565b92915050565b60006020828403121561150a576115096111d2565b5b6000611518848285016114df565b91505092915050565b7f496e73756666696369656e7420746f6b656e20737570706c7900000000000000600082015250565b60006115576019836112e5565b915061156282611521565b602082019050919050565b600060208201905081810360008301526115868161154a565b9050919050565b60006115988261119e565b91506115a38361119e565b92508282019050808211156115bb576115ba611362565b5b92915050565b60006040820190506115d66000830185611262565b6115e360208301846111a8565b9392505050565b60008115159050919050565b6115ff816115ea565b811461160a57600080fd5b50565b60008151905061161c816115f6565b92915050565b600060208284031215611638576116376111d2565b5b60006116468482850161160d565b91505092915050565b600060408201905061166460008301856111a8565b61167160208301846111a8565b9392505050565b7f496e73756666696369656e742062616c616e6365000000000000000000000000600082015250565b60006116ae6014836112e5565b91506116b982611678565b602082019050919050565b600060208201905081810360008301526116dd816116a1565b9050919050565b7f496e76616c69642070726573616c652073746167650000000000000000000000600082015250565b600061171a6015836112e5565b9150611725826116e4565b602082019050919050565b600060208201905081810360008301526117498161170d565b905091905056fea26469706673582212202932638d4f785ad2ba9b9a81873416a3e93b797c9d8bbb056bfc5fefabe7a31d64736f6c63430008140033",
  "linkReferences": {},
  "deployedLinkReferences": {}
}